{
  "contractName": "Content",
  "abi": [
    {
      "constant": true,
      "inputs": [
        {
          "name": "",
          "type": "uint256"
        }
      ],
      "name": "posts",
      "outputs": [
        {
          "name": "id",
          "type": "uint256"
        },
        {
          "name": "created",
          "type": "uint256"
        },
        {
          "name": "author",
          "type": "address"
        },
        {
          "name": "initialAmount",
          "type": "uint256"
        },
        {
          "name": "totalAmount",
          "type": "uint256"
        },
        {
          "name": "imageId",
          "type": "string"
        },
        {
          "name": "title",
          "type": "string"
        }
      ],
      "payable": false,
      "stateMutability": "view",
      "type": "function"
    },
    {
      "constant": true,
      "inputs": [
        {
          "name": "",
          "type": "address"
        }
      ],
      "name": "admins",
      "outputs": [
        {
          "name": "role",
          "type": "uint8"
        }
      ],
      "payable": false,
      "stateMutability": "view",
      "type": "function"
    },
    {
      "constant": true,
      "inputs": [
        {
          "name": "",
          "type": "uint256"
        }
      ],
      "name": "userIds",
      "outputs": [
        {
          "name": "",
          "type": "address"
        }
      ],
      "payable": false,
      "stateMutability": "view",
      "type": "function"
    },
    {
      "constant": true,
      "inputs": [
        {
          "name": "",
          "type": "uint256"
        }
      ],
      "name": "fundingIds",
      "outputs": [
        {
          "name": "",
          "type": "uint256"
        }
      ],
      "payable": false,
      "stateMutability": "view",
      "type": "function"
    },
    {
      "constant": true,
      "inputs": [
        {
          "name": "",
          "type": "uint256"
        }
      ],
      "name": "postIds",
      "outputs": [
        {
          "name": "",
          "type": "uint256"
        }
      ],
      "payable": false,
      "stateMutability": "view",
      "type": "function"
    },
    {
      "constant": true,
      "inputs": [
        {
          "name": "",
          "type": "uint256"
        },
        {
          "name": "",
          "type": "uint256"
        }
      ],
      "name": "supporters",
      "outputs": [
        {
          "name": "user",
          "type": "address"
        },
        {
          "name": "amount",
          "type": "uint256"
        },
        {
          "name": "comment",
          "type": "string"
        }
      ],
      "payable": false,
      "stateMutability": "view",
      "type": "function"
    },
    {
      "constant": true,
      "inputs": [
        {
          "name": "",
          "type": "address"
        }
      ],
      "name": "users",
      "outputs": [
        {
          "name": "displayName",
          "type": "string"
        },
        {
          "name": "countryCode",
          "type": "string"
        },
        {
          "name": "state",
          "type": "uint8"
        }
      ],
      "payable": false,
      "stateMutability": "view",
      "type": "function"
    },
    {
      "constant": true,
      "inputs": [
        {
          "name": "",
          "type": "uint256"
        }
      ],
      "name": "fundings",
      "outputs": [
        {
          "name": "id",
          "type": "uint256"
        },
        {
          "name": "name",
          "type": "string"
        },
        {
          "name": "description",
          "type": "string"
        },
        {
          "name": "state",
          "type": "uint8"
        },
        {
          "name": "end",
          "type": "uint256"
        },
        {
          "name": "beneficiary",
          "type": "address"
        },
        {
          "name": "countryCode",
          "type": "string"
        },
        {
          "name": "geoLocation",
          "type": "string"
        }
      ],
      "payable": false,
      "stateMutability": "view",
      "type": "function"
    },
    {
      "inputs": [],
      "payable": false,
      "stateMutability": "nonpayable",
      "type": "constructor"
    },
    {
      "anonymous": false,
      "inputs": [
        {
          "indexed": false,
          "name": "author",
          "type": "address"
        },
        {
          "indexed": false,
          "name": "funding",
          "type": "address"
        },
        {
          "indexed": false,
          "name": "admount",
          "type": "uint256"
        }
      ],
      "name": "PostCreated",
      "type": "event"
    },
    {
      "anonymous": false,
      "inputs": [
        {
          "indexed": false,
          "name": "post",
          "type": "address"
        },
        {
          "indexed": false,
          "name": "author",
          "type": "address"
        },
        {
          "indexed": false,
          "name": "funding",
          "type": "address"
        },
        {
          "indexed": false,
          "name": "amount",
          "type": "uint256"
        }
      ],
      "name": "PostReplenished",
      "type": "event"
    },
    {
      "constant": false,
      "inputs": [
        {
          "name": "_displayName",
          "type": "string"
        },
        {
          "name": "_countryCode",
          "type": "string"
        }
      ],
      "name": "signUp",
      "outputs": [],
      "payable": false,
      "stateMutability": "nonpayable",
      "type": "function"
    },
    {
      "constant": false,
      "inputs": [],
      "name": "deleteSelf",
      "outputs": [],
      "payable": false,
      "stateMutability": "nonpayable",
      "type": "function"
    },
    {
      "constant": false,
      "inputs": [
        {
          "name": "user",
          "type": "address"
        }
      ],
      "name": "blockUser",
      "outputs": [],
      "payable": false,
      "stateMutability": "nonpayable",
      "type": "function"
    },
    {
      "constant": false,
      "inputs": [
        {
          "name": "newAdmin",
          "type": "address"
        },
        {
          "name": "_role",
          "type": "uint8"
        }
      ],
      "name": "assignAdminRole",
      "outputs": [],
      "payable": false,
      "stateMutability": "nonpayable",
      "type": "function"
    },
    {
      "constant": true,
      "inputs": [
        {
          "name": "_countryCode",
          "type": "string"
        }
      ],
      "name": "getMinimalEventPayable",
      "outputs": [
        {
          "name": "sumAmount",
          "type": "uint256"
        }
      ],
      "payable": false,
      "stateMutability": "view",
      "type": "function"
    }
  ],
  "bytecode": "0x608060405234801561001057600080fd5b5060206040519081016040528060048081111561002957fe5b8152506000803373ffffffffffffffffffffffffffffffffffffffff1673ffffffffffffffffffffffffffffffffffffffff16815260200190815260200160002060008201518160000160006101000a81548160ff0219169083600481111561008e57fe5b0217905550905050611c94806100a56000396000f3006080604052600436106100c5576000357c0100000000000000000000000000000000000000000000000000000000900463ffffffff1680630b1e7f83146100ca5780630ce7025a1461022b5780633da0132514610242578063429b62e5146102855780634635fd68146102ea57806350005e861461035757806350cde8ef146103985780635d18509d146103d95780636bd9c9d5146104565780636e0f14ff146104a6578063a469a33214610590578063a87430ba1461063f578063d13cb1fb1461077c575b600080fd5b3480156100d657600080fd5b506100f5600480360381019080803590602001909291905050506109bc565b604051808881526020018781526020018673ffffffffffffffffffffffffffffffffffffffff1673ffffffffffffffffffffffffffffffffffffffff1681526020018581526020018481526020018060200180602001838103835285818151815260200191508051906020019080838360005b83811015610183578082015181840152602081019050610168565b50505050905090810190601f1680156101b05780820380516001836020036101000a031916815260200191505b50838103825284818151815260200191508051906020019080838360005b838110156101e95780820151818401526020810190506101ce565b50505050905090810190601f1680156102165780820380516001836020036101000a031916815260200191505b50995050505050505050505060405180910390f35b34801561023757600080fd5b50610240610b4e565b005b34801561024e57600080fd5b50610283600480360381019080803573ffffffffffffffffffffffffffffffffffffffff169060200190929190505050610cb5565b005b34801561029157600080fd5b506102c6600480360381019080803573ffffffffffffffffffffffffffffffffffffffff169060200190929190505050610e92565b604051808260048111156102d657fe5b60ff16815260200191505060405180910390f35b3480156102f657600080fd5b5061031560048036038101908080359060200190929190505050610ebd565b604051808273ffffffffffffffffffffffffffffffffffffffff1673ffffffffffffffffffffffffffffffffffffffff16815260200191505060405180910390f35b34801561036357600080fd5b5061038260048036038101908080359060200190929190505050610efb565b6040518082815260200191505060405180910390f35b3480156103a457600080fd5b506103c360048036038101908080359060200190929190505050610f1e565b6040518082815260200191505060405180910390f35b3480156103e557600080fd5b50610440600480360381019080803590602001908201803590602001908080601f0160208091040260200160405190810160405280939291908181526020018383808284378201915050505050509192919290505050610f41565b6040518082815260200191505060405180910390f35b34801561046257600080fd5b506104a4600480360381019080803573ffffffffffffffffffffffffffffffffffffffff169060200190929190803560ff1690602001909291905050506111f9565b005b3480156104b257600080fd5b506104db6004803603810190808035906020019092919080359060200190929190505050611408565b604051808473ffffffffffffffffffffffffffffffffffffffff1673ffffffffffffffffffffffffffffffffffffffff16815260200183815260200180602001828103825283818151815260200191508051906020019080838360005b83811015610553578082015181840152602081019050610538565b50505050905090810190601f1680156105805780820380516001836020036101000a031916815260200191505b5094505050505060405180910390f35b34801561059c57600080fd5b5061063d600480360381019080803590602001908201803590602001908080601f0160208091040260200160405190810160405280939291908181526020018383808284378201915050505050509192919290803590602001908201803590602001908080601f0160208091040260200160405190810160405280939291908181526020018383808284378201915050505050509192919290505050611506565b005b34801561064b57600080fd5b50610680600480360381019080803573ffffffffffffffffffffffffffffffffffffffff169060200190929190505050611787565b60405180806020018060200184600281111561069857fe5b60ff168152602001838103835286818151815260200191508051906020019080838360005b838110156106d85780820151818401526020810190506106bd565b50505050905090810190601f1680156107055780820380516001836020036101000a031916815260200191505b50838103825285818151815260200191508051906020019080838360005b8381101561073e578082015181840152602081019050610723565b50505050905090810190601f16801561076b5780820380516001836020036101000a031916815260200191505b509550505050505060405180910390f35b34801561078857600080fd5b506107a7600480360381019080803590602001909291905050506118ee565b6040518089815260200180602001806020018860048111156107c557fe5b60ff1681526020018781526020018673ffffffffffffffffffffffffffffffffffffffff1673ffffffffffffffffffffffffffffffffffffffff168152602001806020018060200185810385528c818151815260200191508051906020019080838360005b8381101561084557808201518184015260208101905061082a565b50505050905090810190601f1680156108725780820380516001836020036101000a031916815260200191505b5085810384528b818151815260200191508051906020019080838360005b838110156108ab578082015181840152602081019050610890565b50505050905090810190601f1680156108d85780820380516001836020036101000a031916815260200191505b50858103835287818151815260200191508051906020019080838360005b838110156109115780820151818401526020810190506108f6565b50505050905090810190601f16801561093e5780820380516001836020036101000a031916815260200191505b50858103825286818151815260200191508051906020019080838360005b8381101561097757808201518184015260208101905061095c565b50505050905090810190601f1680156109a45780820380516001836020036101000a031916815260200191505b509c5050505050505050505050505060405180910390f35b60056020528060005260406000206000915090508060000154908060010154908060020160009054906101000a900473ffffffffffffffffffffffffffffffffffffffff1690806003015490806004015490806005018054600181600116156101000203166002900480601f016020809104026020016040519081016040528092919081815260200182805460018160011615610100020316600290048015610aa65780601f10610a7b57610100808354040283529160200191610aa6565b820191906000526020600020905b815481529060010190602001808311610a8957829003601f168201915b505050505090806006018054600181600116156101000203166002900480601f016020809104026020016040519081016040528092919081815260200182805460018160011615610100020316600290048015610b445780601f10610b1957610100808354040283529160200191610b44565b820191906000526020600020905b815481529060010190602001808311610b2757829003601f168201915b5050505050905087565b600280811115610b5a57fe5b600160003373ffffffffffffffffffffffffffffffffffffffff1673ffffffffffffffffffffffffffffffffffffffff16815260200190815260200160002060020160009054906101000a900460ff166002811115610bb557fe5b141515610c50576040517f08c379a000000000000000000000000000000000000000000000000000000000815260040180806020018281038252602e8152602001807f4f6e6c79207265676973746572656420616e642061637469766520757365722081526020017f63616e2063616c6c20746869732e00000000000000000000000000000000000081525060400191505060405180910390fd5b60018060003373ffffffffffffffffffffffffffffffffffffffff1673ffffffffffffffffffffffffffffffffffffffff16815260200190815260200160002060020160006101000a81548160ff02191690836002811115610cae57fe5b0217905550565b6002806004811115610cc357fe5b6000803373ffffffffffffffffffffffffffffffffffffffff1673ffffffffffffffffffffffffffffffffffffffff16815260200190815260200160002060000160009054906101000a900460ff166004811115610d1d57fe5b141515610db8576040517f08c379a000000000000000000000000000000000000000000000000000000000815260040180806020018281038252602c8152602001807f4f6e6c792061646d696e207769746820726571756972656420726f6c6520636181526020017f6e2063616c6c20746869732e000000000000000000000000000000000000000081525060400191505060405180910390fd5b600280811115610dc457fe5b600160008473ffffffffffffffffffffffffffffffffffffffff1673ffffffffffffffffffffffffffffffffffffffff16815260200190815260200160002060020160009054906101000a900460ff166002811115610e1f57fe5b141515610e2b57600080fd5b60018060008473ffffffffffffffffffffffffffffffffffffffff1673ffffffffffffffffffffffffffffffffffffffff16815260200190815260200160002060020160006101000a81548160ff02191690836002811115610e8957fe5b02179055505050565b60006020528060005260406000206000915090508060000160009054906101000a900460ff16905081565b600281815481101515610ecc57fe5b906000526020600020016000915054906101000a900473ffffffffffffffffffffffffffffffffffffffff1681565b600481815481101515610f0a57fe5b906000526020600020016000915090505481565b600681815481101515610f2d57fe5b906000526020600020016000915090505481565b600080600080846040516020018082805190602001908083835b602083101515610f805780518252602082019150602081019050602083039250610f5b565b6001836020036101000a0380198251168184511680821785525050505050509050019150506040516020818303038152906040526040518082805190602001908083835b602083101515610fe95780518252602082019150602081019050602083039250610fc4565b6001836020036101000a03801982511681845116808217855250505050505090500191505060405180910390209250600091505b6006805490508210156111e357600160006005600060068681548110151561104157fe5b9060005260206000200154815260200190815260200160002060020160009054906101000a900473ffffffffffffffffffffffffffffffffffffffff1673ffffffffffffffffffffffffffffffffffffffff1673ffffffffffffffffffffffffffffffffffffffff168152602001908152602001600020905082600019168160010160405160200180828054600181600116156101000203166002900480156111215780601f106110ff576101008083540402835291820191611121565b820191906000526020600020905b81548152906001019060200180831161110d575b50509150506040516020818303038152906040526040518082805190602001908083835b60208310151561116a5780518252602082019150602081019050602083039250611145565b6001836020036101000a03801982511681845116808217855250505050505090500191505060405180910390206000191614156111d657600560006006848154811015156111b457fe5b9060005260206000200154815260200190815260200160002060040154840193505b818060010192505061101d565b60648410156111f157606493505b505050919050565b6000600380600481111561120957fe5b6000803373ffffffffffffffffffffffffffffffffffffffff1673ffffffffffffffffffffffffffffffffffffffff16815260200190815260200160002060000160009054906101000a900460ff16600481111561126357fe5b1415156112fe576040517f08c379a000000000000000000000000000000000000000000000000000000000815260040180806020018281038252602c8152602001807f4f6e6c792061646d696e207769746820726571756972656420726f6c6520636181526020017f6e2063616c6c20746869732e000000000000000000000000000000000000000081525060400191505060405180910390fd5b6000808573ffffffffffffffffffffffffffffffffffffffff1673ffffffffffffffffffffffffffffffffffffffff168152602001908152602001600020915082600481111561134a57fe5b8260000160009054906101000a900460ff16600481111561136757fe5b141515156113dd576040517f08c379a00000000000000000000000000000000000000000000000000000000081526004018080602001828103825260118152602001807f416c7265616479207369676e656420757000000000000000000000000000000081525060200191505060405180910390fd5b828260000160006101000a81548160ff021916908360048111156113fd57fe5b021790555050505050565b60076020528160005260406000208181548110151561142357fe5b9060005260206000209060030201600091509150508060000160009054906101000a900473ffffffffffffffffffffffffffffffffffffffff1690806001015490806002018054600181600116156101000203166002900480601f0160208091040260200160405190810160405280929190818152602001828054600181600116156101000203166002900480156114fc5780601f106114d1576101008083540402835291602001916114fc565b820191906000526020600020905b8154815290600101906020018083116114df57829003601f168201915b5050505050905083565b6000600160003373ffffffffffffffffffffffffffffffffffffffff1673ffffffffffffffffffffffffffffffffffffffff16815260200190815260200160002090506000600281111561155657fe5b8160020160009054906101000a900460ff16600281111561157357fe5b141580156115a957506001600281111561158957fe5b8160020160009054906101000a900460ff1660028111156115a657fe5b14155b80156115dc57506002808111156115bc57fe5b8160020160009054906101000a900460ff1660028111156115d957fe5b14155b1515611650576040517f08c379a00000000000000000000000000000000000000000000000000000000081526004018080602001828103825260118152602001807f416c7265616479207369676e656420757000000000000000000000000000000081525060200191505060405180910390fd5b60606040519081016040528084815260200183815260200160028081111561167457fe5b815250600160003373ffffffffffffffffffffffffffffffffffffffff1673ffffffffffffffffffffffffffffffffffffffff16815260200190815260200160002060008201518160000190805190602001906116d2929190611bc3565b5060208201518160010190805190602001906116ef929190611bc3565b5060408201518160020160006101000a81548160ff0219169083600281111561171457fe5b021790555090505060023390806001815401808255809150509060018203906000526020600020016000909192909190916101000a81548173ffffffffffffffffffffffffffffffffffffffff021916908373ffffffffffffffffffffffffffffffffffffffff16021790555050505050565b6001602052806000526040600020600091509050806000018054600181600116156101000203166002900480601f0160208091040260200160405190810160405280929190818152602001828054600181600116156101000203166002900480156118335780601f1061180857610100808354040283529160200191611833565b820191906000526020600020905b81548152906001019060200180831161181657829003601f168201915b505050505090806001018054600181600116156101000203166002900480601f0160208091040260200160405190810160405280929190818152602001828054600181600116156101000203166002900480156118d15780601f106118a6576101008083540402835291602001916118d1565b820191906000526020600020905b8154815290600101906020018083116118b457829003601f168201915b5050505050908060020160009054906101000a900460ff16905083565b6003602052806000526040600020600091509050806000015490806001018054600181600116156101000203166002900480601f0160208091040260200160405190810160405280929190818152602001828054600181600116156101000203166002900480156119a05780601f10611975576101008083540402835291602001916119a0565b820191906000526020600020905b81548152906001019060200180831161198357829003601f168201915b505050505090806002018054600181600116156101000203166002900480601f016020809104026020016040519081016040528092919081815260200182805460018160011615610100020316600290048015611a3e5780601f10611a1357610100808354040283529160200191611a3e565b820191906000526020600020905b815481529060010190602001808311611a2157829003601f168201915b5050505050908060030160009054906101000a900460ff16908060040154908060050160009054906101000a900473ffffffffffffffffffffffffffffffffffffffff1690806006018054600181600116156101000203166002900480601f016020809104026020016040519081016040528092919081815260200182805460018160011615610100020316600290048015611b1b5780601f10611af057610100808354040283529160200191611b1b565b820191906000526020600020905b815481529060010190602001808311611afe57829003601f168201915b505050505090806007018054600181600116156101000203166002900480601f016020809104026020016040519081016040528092919081815260200182805460018160011615610100020316600290048015611bb95780601f10611b8e57610100808354040283529160200191611bb9565b820191906000526020600020905b815481529060010190602001808311611b9c57829003601f168201915b5050505050905088565b828054600181600116156101000203166002900490600052602060002090601f016020900481019282601f10611c0457805160ff1916838001178555611c32565b82800160010185558215611c32579182015b82811115611c31578251825591602001919060010190611c16565b5b509050611c3f9190611c43565b5090565b611c6591905b80821115611c61576000816000905550600101611c49565b5090565b905600a165627a7a7230582011db865d57d0317e6bfce234f3d8fed67f15156acd5a8592ac6e9f35c2198cdc0029",
  "source": "pragma solidity ^0.4.24;\n\ncontract Content {\n\n\tenum AdminRole { None, ManageFundings, ManageUsers, ManageAdmins, God }\n\tstruct Admin {\n\t\tAdminRole role;\n\t}\n\tmapping(address => Admin) public admins;\n\n\n\n\tenum UserState { Blocked, Deleted, Active }\n\tstruct User {\n\t\tstring displayName;\n\t\tstring countryCode;\n\t\tUserState state;\n\t}\n\tmapping(address => User) public users;\n\taddress[] public userIds;\n\n\n\n\tenum FundingState { Blocked, Deleted, InReview, Active, Completed }\n\tstruct Funding {\n\t\tuint id;\n\t\tstring name;\n\t\tstring description;\n\t\tFundingState state;\n\t\tuint end;\n\t\taddress beneficiary;\n\t\tstring countryCode;\n\t\tstring geoLocation;\n\t}\n\tmapping(uint => Funding) public fundings;\n\tuint[] public fundingIds;\n\n\n\n\tstruct Post {\n\t\tuint id;\n\t\tuint created;\n\n\t\taddress author;\n\t\tuint initialAmount;\n\t\tuint totalAmount;\n\n\t\tstring imageId;\n\t\tstring title;\n\t}\n\tmapping(uint => Post) public posts;\n\tuint[] public postIds;\n\n\tstruct Supporter {\n\t\taddress user;\n\t\tuint amount;\n\t\tstring comment;\n\t}\n\tmapping(uint => Supporter[]) public supporters; // by Post.id\n\n\n\n\tmodifier onlyAdmin(AdminRole role) {\n\t\trequire(\n\t\t\tadmins[msg.sender].role == role,\n\t\t\t\"Only admin with required role can call this.\"\n\t\t);\n\t\t_;\n\n\t}\n\tmodifier onlyUser() {\n\t\trequire(\n\t\t\tusers[msg.sender].state == UserState.Active,\n\t\t\t\"Only registered and active user can call this.\"\n\t\t);\n\t\t_;\n\t}\n\n\n\n\tevent PostCreated(address author, address funding, uint admount);\n\tevent PostReplenished(address post, address author, address funding, uint amount);\n\n\n\n\tconstructor() public {\n\t\tadmins[msg.sender] = Admin({\n\t\t\trole: AdminRole.God\n\t\t});\n\t}\n\n\n\n\tfunction signUp(string _displayName, string _countryCode) public {\n\t\tUser storage usr = users[msg.sender];\n\n\t\t// Любое, отличное от нуля состояние означает, что такой пользователь уже зарегистрирован\n\t\trequire(\n\t\t\tusr.state != UserState.Blocked && usr.state != UserState.Deleted && usr.state != UserState.Active,\n\t\t\t\"Already signed up\"\n\t\t);\n\n\t\tusers[msg.sender] = User({\n\t\t\tdisplayName: _displayName,\n\t\t\tcountryCode: _countryCode,\n\t\t\tstate: UserState.Active\n\t\t});\n\t\tuserIds.push(msg.sender);\n\t}\n\n\tfunction deleteSelf() public onlyUser() {\n\t\tusers[msg.sender].state = UserState.Deleted;\n\t}\n\n\tfunction blockUser(address user) public onlyAdmin(AdminRole.ManageUsers) {\n\t\trequire(users[user].state == UserState.Active);\n\t\tusers[user].state = UserState.Deleted;\n\t}\n\n\n\n\tfunction assignAdminRole(address newAdmin, AdminRole _role) public onlyAdmin(AdminRole.ManageAdmins) {\n\t\tAdmin storage admin = admins[newAdmin];\n\n\t\trequire(\n\t\t\tadmin.role != _role,\n\t\t\t\"Already signed up\"\n\t\t);\n\n\t\tadmin.role = _role;\n\t}\n\n\n\n\tfunction getMinimalEventPayable(string _countryCode) public view returns (uint sumAmount) {\n\t\tbytes32 encodedCountryCode = keccak256(abi.encodePacked(_countryCode));\n\n\t\tfor (uint i = 0; i < postIds.length; i++) {\n\t\t\tUser storage user = users[posts[postIds[i]].author];\n\t\t\tif(keccak256(abi.encodePacked(user.countryCode)) == encodedCountryCode){\n\t\t\t\tsumAmount += posts[postIds[i]].totalAmount;\n\t\t\t}\n\t\t}\n\t\tif(sumAmount < 100) sumAmount = 100;\n\t}\n\n\t// function addFunding(string _name, string _description, uint _end, string _geoLocation) public payable onlyUser() {\n\t// \tUser storage user = users[msg.sender];\n\t// \tuint minimalAmount = getMinimalEventPayable(user.countryCode);\n\t// \trequire(msg.value > minimalAmount, \"Minitmal amount for funding required\");\n\t// }\n\n}",
  "sourcePath": "/Users/petrovi4/projects/blockchain/coinforgoods/eth/contracts/Content.sol",
  "compiler": {
    "name": "solc",
    "version": "0.4.24+commit.e67f0147.Emscripten.clang"
  },
  "schemaVersion": "2.0.1",
  "updatedAt": "2018-08-08T17:13:03.077Z"
}